:100000000C941B010C944C010C944C010C944C016D
:100010000C944C010C944C010C944C010C944C012C
:100020000C944C010C944C010C944C010C944C011C
:100030000C944C010C944C010C944C010C944C010C
:100040000C944C010C944C010C944C010C944C01FC
:100050000C944C010C944C010C944C010C94941095
:100060000C944C010C9408110C94DE100C944C016F
:100070000C944C010C944C010C944C010C944C01CC
:100080000C944C010C944C010C944C010C944C01BC
:100090000C944C010C944C010C944C010C944C01AC
:1000A0000C944C010C944C010C944C010C944C019C
:1000B0000C944C010C944C010C944C010C944C018C
:1000C0000C944C010C944C010C944C010C944C017C
:1000D0000C944C010C944C010C944C010C944C016C
:1000E0000C944C010C94FD010C946F020C94CD0106
:1000F0000C94D7010C94CA010C94F3010C94910256
:100100000C94F9010C94AC010C94C9020C94C2013A
:100110000C94E5010C94BE010C94C6010C94E10111
:100120000C9483020C94DD010C9460020C94EF019A
:100130000C9433020C94A7010C94EB010C94D301A2
:100140000C9416030C948F15000022002500280043
:100150002B002E00310034000201000005010801CF
:100160000B0105050505070508080808020202023B
:100170000A0A080804040404010101010101010143
:100180000303030303030303040707070C0C0C0C0E
:100190000C0C0C0C020202020606060606060606F7
:1001A0000B0B0B0B0B0B0B0B010210202008081084
:1001B00020401020408002010201080402010102D7
:1001C00004081020408080402010080402018004B0
:1001D000020180402010080402010804020101020B
:1001E0000408102040800102040810204080000014
:1001F0000A0B02090C0D0E080703040100000000A1
:1002000000000000000000000000000000000000EE
:1002100000000000000000000000121110000000AB
:1002200000000000000000000000000000000000CE
:10023000000000008F1511241FBECFEFDFEFDEBFDF
:10024000CDBF00E00CBF14E0A0E0B2E0E4E5FEE2C8
:1002500000E00BBF02C007900D92AC3FB107D9F789
:1002600029E0ACEFB4E001C01D92A535B207E1F77B
:1002700011E0CBE1D1E000E006C021970109802F19
:10028000FE010E94BC15CA31D10780E00807A9F71A
:100290000E943E110C9428170C940000FC0181E090
:1002A00080838283148216821782108611861286BA
:1002B0001386148615861786118A128A138A148A61
:1002C000158A168A178A108E128E148E168E178E25
:1002D00010A211A212A213A214A215A217A210A674
:1002E00011A612A613A614A615A616A60895282FC1
:1002F00030E0F901E251FE4F9491F901E855FE4FCB
:1003000044912E593E4FF9012491222309F435C01E
:10031000992311F191509231F8F4E92FF0E08827F8
:10032000EB56FE4F8F4F0C94BC15C601CA01A701B6
:10033000BE01C201AC01CD01D301D701DD01E10154
:10034000E501EB01EF01AC01F301F901FD01809141
:1003500080008F7780938000E22FF0E0EE0FFF1F88
:10036000E85BFE4FA591B4918FB7F894EC916111C1
:1003700048C040954E234C938FBF089580918000D4
:100380008F7DE8CF80918000877FE4CF84B58F7721
:1003900084BDE2CF84B58F7DFBCF8091B0008F7795
:1003A0008093B000D9CF8091B0008F7DF9CF80913C
:1003B00090008F7780939000CFCF809190008F7DB9
:1003C000F9CF80919000877FF5CF8091A0008F7743
:1003D0008093A000C1CF8091A0008F7DF9CF809144
:1003E000A000877FF5CF809120018F778093200137
:1003F000B3CF809120018F7DF9CF80912001877F3D
:10040000F5CF4E2BB8CF8230910538F0880F991F69
:10041000880F991F05970197F1F708953FB7F89452
:1004200080914D0990914E09A0914F09B0915009CA
:1004300026B5A89B05C02F3F19F00196A11DB11D3F
:100440003FBFBA2FA92F982F8827BC01CD01620F7B
:10045000711D811D911D42E0660F771F881F991F36
:100460004A95D1F70895AF92BF92CF92DF92EF9263
:10047000FF920F931F93CF93DF936C017B018B014E
:10048000040F151FEB015E01AE18BF08C017D1079E
:1004900059F06991D601ED91FC910190F081E02D28
:1004A000C6011995892B79F7C501DF91CF911F916D
:1004B0000F91FF90EF90DF90CF90BF90AF90089595
:1004C000FC01538D448D252F30E0842F90E0821B5A
:1004D000930B541710F0CF96089501970895FC01DF
:1004E000918D828D981761F0A28DAE0FBF2FB11D37
:1004F0005D968C91928D9F5F9F73928F90E008958F
:100500008FEF9FEF0895FC01918D828D981731F048
:10051000828DE80FF11D858D90E008958FEF9FEF9C
:100520000895FC01918D228D892F90E0805C9F4F72
:10053000821B91098F739927089589EF97E00E9494
:10054000910221E0892B09F420E0822F0895FC011B
:10055000A48DA80FB92FB11DA35ABF4F2C91848D24
:1005600090E001968F739927848FA689B7892C9381
:10057000A089B1898C91837080648C93938D848DD4
:10058000981306C00288F389E02D80818F7D8083D7
:100590000895EF92FF920F931F93CF93DF93EC0197
:1005A00081E0888F9B8D8C8D98131AC0E889F9891A
:1005B000808185FF15C09FB7F894EE89FF8960831D
:1005C000E889F98980818370806480839FBF81E09E
:1005D00090E0DF91CF911F910F91FF90EF900895E0
:1005E000F62E0B8D10E00F5F1F4F0F731127E02EBB
:1005F0008C8D8E110CC00FB607FCFACFE889F989F3
:10060000808185FFF5CFCE010E94A702F1CFEB8D4F
:10061000EC0FFD2FF11DE35AFF4FF0829FB7F894C6
:100620000B8FEA89FB8980818062CFCFCF93DF93E4
:10063000EC01888D8823B9F0AA89BB89E889F989FA
:100640008C9185FD03C0808186FD0DC00FB607FC2F
:10065000F7CF8C9185FFF2CF808185FFEDCFCE0162
:100660000E94A702E9CFDF91CF91089580E090E04A
:10067000892B29F00E949D0281110E94000080E0D8
:1006800090E0892B49F080E090E0892B29F00E94CE
:10069000000081110E94000080E090E0892B49F069
:1006A00080E090E0892B29F00E94000081110E94D7
:1006B000000080E090E0892B49F080E090E0892BF9
:1006C00029F00E94000081110C9400000895FC01A3
:1006D00084819581A681B781408151816281738136
:1006E000811526E3920725E6A20724ECB2073CF029
:1006F00014161506160617068CF4B7FF0FC04150E6
:100700005109610971094083518362837383965350
:10071000A546B44C84839583A683B7838481958151
:10072000A681B781408151816281738181302AEC39
:1007300092072AE9A2072BE3B2073CF477FF14C023
:10074000181619061A061B067CF44F5F5F4F6F4F91
:100750007F4F40835183628373839A5CAA49BB4372
:1007600084839583A683B7830895880F991F880F84
:10077000991FDC01A45CBB4FED91FC91119712967F
:100780008D919C918F309105C1F058F48230910584
:1007900028F08430910588F00A9779F0F0E0E0E0E5
:1007A0000CC08B32910529F08733910511F08397A6
:1007B000A9F7828181FF03C03396CF01089501908C
:1007C000F081E02DFACF8332910598F4880F991FBC
:1007D000880F991FFC01E45CFB4F82819381029793
:1007E0008633910530F48A5F9B4FFC01808190E055
:1007F000089590E080E0089520910705209530E06D
:10080000F901EA5FFC4F908190952A5F3D4FD90135
:100810008C91409105055091060542505109E7E041
:10082000F5E031969F01275035402417350770F4C5
:1008300020819227292F30E0D901AA5FBC4F9C91DB
:1008400098272A5F3D4FD9018C91EBCF089523E083
:1008500030E03093060520930505E7E0F5E0909140
:10086000E607908380588183628308950F931F93D6
:10087000582F577001E010E020E030E004C0000F76
:10088000111F221F331F5A95D2F723E096958795A3
:100890002A95E1F79927E091F007F091F107662397
:1008A00021F0E091F607F091F707E80FF91F80813A
:1008B000442329F0082B00831F910F910895009580
:1008C0000823F9CFCF92DF92EF92FF920F931F93FD
:1008D000CF93DF93CDB7DEB789899A89AB89BC897D
:1008E0004D895E896F89788D098D1A8D2B8D3C8D90
:1008F000CD8CDE8CEF8CF8A080179107A207B30790
:1009000059F44C195D096E097F091416150616066F
:1009100017065CF081E00AC0801B910BA20BB30BA1
:10092000181619061A061B06ACF780E0DF91CF9166
:100930001F910F91FF90EF90DF90CF9008954F920D
:100940005F926F927F928F929F92AF92BF92CF925F
:10095000DF92EF92FF920F931F93CF93DF93CDB768
:10096000DEB7A0970FB6F894DEBF0FBECDBFFC0177
:1009700023812270308131111AC0211101C01282ED
:10098000A0960FB6F894DEBF0FBECDBFDF91CF911A
:100990001F910F91FF90EF90DF90CF90BF90AF909D
:1009A0009F908F907F906F905F904F90089521114E
:1009B00002C021E02283FC0126A121FD09C028E01C
:1009C000E3E3F9E0DC015E9601900D922A95E1F7F0
:1009D0008C01FC01F28C8481F11018C0948D992354
:1009E00009F4ECC0811114C0838D81FD02C081E047
:1009F000828FF80187A581FD1BC088E07E96D80113
:100A0000979601900D928A95E1F712C0882329F1FB
:100A1000F801818D81FD08C0118A128A138A148A17
:100A2000158A168A178A108EF801838D81FF128E1F
:100A3000F801808981FD0AC084818111BDC081E0F7
:100A4000928D913009F080E0F8018787F801858D5B
:100A500081FD96CF8481848F93CFF1E0FF12E8CFA0
:100A6000F80183A594A5A5A5B6A582849384A48442
:100A7000B58447A150A561A572A5468057806084C2
:100A80007184440D551D661D771D49835A836B8300
:100A90007C83880D991DAA1DBB1D8D839E83AF830A
:100AA000B887CE0101960E94670388E0FE01319667
:100AB000DE01519601900D928A95E1F788E0FE01E2
:100AC0007196DE01599601900D928A95E1F700D05A
:100AD00000D01F921F92ADB7BEB7119688E0F80103
:100AE0007E9601900D928A95E1F700D000D01F927A
:100AF0001F92ADB7BEB7119688E0FE0179960190BE
:100B00000D928A95E1F71F9282E0E82EEF921F92F4
:100B10001F92FF920E9462040FB6F894DEBF0FBED0
:100B2000CDBFF801918D882359F0838D81FFE28E2E
:100B300088E0F801369691FD7BCFD801519661CFC0
:100B400091FD76CF82A193A1A4A1B5A1C3A4D4A401
:100B5000E5A4F6A4468D578D60A171A187A090A44D
:100B6000A1A4B2A4481959096A097B0949875A877F
:100B70006B877C878C199D09AE09BF098D879E877D
:100B8000AF87B88BCE0109960E94670388E0FE010B
:100B90003996DE01119601900D928A95E1F788E071
:100BA000FE013196DE01199601900D928A95E1F7CA
:100BB00088E0FE013996C1CF81E046CF882309F451
:100BC00037CF26CF2F923F924F925F926F927F92B4
:100BD0008F929F92AF92BF92CF92DF92EF92FF924D
:100BE0000F931F93CF93DF93CDB7DEB7C354D109D3
:100BF0000FB6F894DEBF0FBECDBF10E000E0F801E5
:100C0000EE0FFF1FEA58F84F0190F081E02D30976A
:100C100049F041E08081811101C040E060E0C801FD
:100C20000E9436040F5F1F4F0833110541F7E09013
:100C3000E707F090E80706E317E019AF08AF870170
:100C4000005C1F4FF70126E337E0D9018D919D919C
:100C50009D01009729F0DC018D919C919183808307
:100C600032960E171F0789F7D12CC12CF601EE0F13
:100C7000FF1FEA53F94F0190F081E02D309749F0C2
:100C800041E08081811101C040E061E0C6010E9425
:100C90003604BFEFCB1ADB0AE8E3CE16D10431F7F6
:100CA00046E856E0E091F307F091F4079F01205CDD
:100CB0003F4FDA018D919D91AD01009729F0DC0144
:100CC0008D919C919183808332962E173F0789F7EF
:100CD000EEE5F6E0FBAFEAAFF80108E6E00EF11C46
:100CE0002EE536E0D9018D919D919D01009729F067
:100CF000DC018D919C91918380833296EE16FF06E4
:100D000089F7E6E3F6E0FDAFECAFE091EA07F0919A
:100D1000EB079F01205B3F4F06E316E0D8018D9162
:100D20009D918D01009749F0DC014D915D916D9190
:100D30007C91408351836283738334962E173F07DF
:100D400069F7EEE0F6E0FFAFEEAFE091ED07F0916E
:100D5000EE079F0120563F4F8EE096E0DC01CD90DC
:100D6000DD90CD01C114D104F1F0D601EC901196C3
:100D7000FC90119712960C91129713961C91139751
:100D800014967C91149715966C91159716965C9114
:100D9000169717964C91E082F18202831383748335
:100DA00065835683478338962E173F07B9F610920E
:100DB00006051092050580910C0690910D06DC0148
:100DC000ED91FC910084F185E02D1995892B09F4B2
:100DD00083C080910C0690910D06DC01ED91FC9191
:100DE0000084F185E02D19952091050530910605C7
:100DF000A0910C06B0910D06ED91FC911197008425
:100E0000F185E02D2817390768F4CD0119959093E5
:100E10000605809305058091090690910A060E94B7
:100E20000302D7CFCD011995813091400CF054C009
:100E300080910C0690910D06DC01ED91FC910084EF
:100E4000F185E02D199506970CF446C047E0842EF5
:100E500045E0942E8401E0900505F0900605C80158
:100E6000875095408E159F0578F480910C069091DF
:100E70000D06DC01ED91FC910284F385E02D1995BE
:100E8000F80181938F01E7CF109108058FEB810F57
:100E9000853080F00E94FC039701295F3A4FF901E9
:100EA0003297408121503109D9012C91342F2817D4
:100EB000390791F4909107058091E607981709F496
:100EC000CDC080910C0690910D06DC01ED91FC9156
:100ED0000680F781E02D19954091F0075091F107B8
:100EE00030E020E0F901EE0FFF1FEA58F84F0190C3
:100EF000F081E02D309799F0D90183E0B695A79560
:100F00008A95E1F7A40FB51F8C9190E0622F67706E
:100F100002C0959587956A95E2F7817080832F5F6F
:100F20003F4F28333105F1F68091E7079091E807AC
:100F3000BC01605C7F4FDC01E8ADF9AD21913191DE
:100F4000F9AFE8AF2115310531F04D915C91119762
:100F5000F9015183408312966A177B0769F7FB01F9
:100F600088599F4FAAADBBAD4D915D91BBAFAAAF64
:100F70004115510529F020813181DA012D933C93EF
:100F800032968E179F0771F7E091EA07F091EB0711
:100F9000CF01805B9F4FACADBDAD2D913D91BDAFFD
:100FA000ACAF2115310551F04081518162817381CF
:100FB000D9014D935D936D937C93139734968E175F
:100FC0009F0749F7E091ED07F091EE07CF018056BA
:100FD0009F4FAEADBFADED90FD90BFAFAEAFE11492
:100FE000F104F1F0008111817281638154814581A6
:100FF00036812781D7010C9311961C931197129675
:101000007C93129713966C93139714965C93149792
:1010100015964C93159716963C93169717962C9306
:1010200038968E179F07A9F6CD5BDF4F0FB6F89461
:10103000DEBF0FBECDBFDF91CF911F910F91FF900B
:10104000EF90DF90CF90BF90AF909F908F907F9068
:101050006F905F904F903F902F900895B2E0EB1A01
:10106000F108F0920605E09205058091090590913E
:101070000A05382E292E60900B0570900C057624F9
:1010800067247624D0900B0520910D0530E01F30A9
:1010900009F48AC5A0F5133009F480C158F4113061
:1010A00009F4F5C3123009F484C461E070E0812FC3
:1010B00090E022C0153009F457C508F40BC516306E
:1010C000A1F72091E9078091EC0790E0880F991F24
:1010D000E22FF0E08E0F9F1F4091EF0704E0409F4A
:1010E000A0011124480F591F2416350608F449C0E1
:1010F00062E070E086E090E00E9427044FC0123466
:1011000009F4FCC698F4103109F462C2113469F68E
:1011100084E090E090930605809305051093080500
:101120001092090583E280930A0538C0143409F44B
:101130005FC608F4DDC5153409F0B7CF8D3AFEED72
:101140009F0709F0DEC71092040585E48093080527
:101150008EE78093090581E2EAEDF4E0DE01119665
:1011600001900D928A95E1F7FE013196AAE0B5E073
:1011700081919D0127503540882309F4D0C78D9374
:10118000F7CF2E163F06D8F4220C331CE091E70768
:10119000F091E807E20DF31D7182608280910505F0
:1011A0009091060502968130914008F45AC58091CD
:1011B000080564E070E090E00E94270452C52816FC
:1011C0003906F0F5A30170E060E08091EA079091A4
:1011D000EB0720FC1CC091012E1B3F0BF901EE0F09
:1011E000FF1FEC7FF370E80FF91F80819181A281CE
:1011F000B381AA27BB27BA0155274427842B952BF7
:10120000A62BB72B80839183A283B383C7CFE095AE
:10121000F095E20DF31DEE0FFF1FEC7FF370E80F6A
:10122000F91F60807180828093806624772446292C
:101230005729682979294083518362837383AECF0C
:101240009101237033274301B12CA12CC12CD12C47
:101250007601E091ED07F091EE072115310549F592
:10126000281A390A220C331C38EF232237E03322A4
:10127000E20DF31D5080618072801381B481A581DD
:10128000940140E050E060E070E080E090E000E336
:101290000E94C41525292083632A6182742A7282E0
:1012A000152B1383B62BB483A72BA5838683978333
:1012B00075CF2130310541F54FEF241A340A281A31
:1012C000390A220C331C88EF282287E03822E20DED
:1012D000F31D5080618072801381B681A7819401D3
:1012E000A501B601C70100E20E94C415522A50822E
:1012F000632A6182742A7282152B13836483758337
:101300008B2B86839A2BD3CF2230310529F5A2E08F
:101310002A0E311C281A390A220C331CB8EF2B2252
:10132000B7E03B22E20DF31D50806180748015818F
:10133000B681A7819401A501B601C70100E10E9411
:10134000C415522A5082632A618242835383762ACB
:101350007482172B1583D4CF03E0200E311C281A7A
:10136000390A220C331C18EF212217E03122E20D3A
:10137000F31D52814381348125819681878180824A
:1013800091825A2952834B2943833C2934832D2946
:1013900025839E2996838F29878300CFC3010197D8
:1013A00063E070E08D379105C8F46101C60CD71C6D
:1013B0004091E907E091EC07F0E0EE0FFF1FE40F2A
:1013C000F11D8091EF0724E0829FC00111248E0F50
:1013D0009F1FC816D90628F062E070E083E090E015
:1013E0008BCE660C771CC301039690930605809301
:1013F0000505A7E0B5E011969D0127503540281757
:10140000390710F41C92F7CF93E0909308058350AE
:1014100080930905E090ED07F090EE07A090EA07B1
:10142000B090EB07A091E707B091E807BAA7A9A78A
:10143000A42FB0E0BBABAAAB83E090E02C014E1A26
:101440005F0A3D01609470942C143D0409F4A6CE0B
:10145000AAA9BBA92A163B0660F49101220F331FEB
:10146000A9A5BAA52A0F3B1FD9018C9111963C91D1
:101470001AC02E163F0670F520FC22C0C101AAA991
:10148000BBA98A1B9B0B880F991F8C7F93708A0DB9
:101490009B1DDC014D915D916D917C91AB016627A7
:1014A0007727842F352FD40113963C9313971496E6
:1014B0008C93B2E08B0E911C0FEF201A300AC4CF30
:1014C0009301220D331D220F331F2C7F33702A0D01
:1014D0003B1DCACF8101037011270115110521F5AC
:1014E00081010E1B1F0B000F111F087F17700E0DBF
:1014F0001F1DD8012C9111963C91119712964C9179
:10150000129713965C91139714966C9114971596F5
:101510007C91159716968C91169717969C9100E3DF
:101520000E94DF15822FBFCF0130110511F50E1B70
:101530001F0B020D131D000F111F087F17700E0DDA
:101540001F1DD8012C9111963C91119712964C9128
:10155000129713965C91139714966C9114971596A5
:101560007C91159716968C91169717969C9100E290
:10157000D7CF0230110511F50E1B1F0B020D131DE5
:10158000000F111F087F17700E0D1F1DD8012C9121
:1015900011963C91119712964C91129713965C916B
:1015A000139714966C91149715967C91159716962F
:1015B0008C91169717969C9100E1B2CF9201220D63
:1015C000331D220F331F287F37702E0D3F1D4CCF48
:1015D000C30101978B37910530F4C301880F991F20
:1015E0002817390729F063E070E080E190E084CDAE
:1015F000D101A60DB71DBDABACAB8091E907409002
:10160000EC07512C440C551CA82EB12C4A0C5B1C29
:101610002091EF07B4E02B9F90011124240D351D7C
:10162000ECA9FDA9E217F30718F062E070E0DDCF46
:1016300026E030E030930605209305051093080559
:101640003092090520920A0510920B0560920C0554
:101650006090ED077090EE07C090EA07D090EB071E
:10166000DFAACEAA4091E7075091E8079101220F27
:10167000331F7A01E20EF31EFBAAEAAAD101A419D4
:10168000B509C50180959095FC01E40DF51D2296E4
:10169000FFAFEEAF22976201CA18DB082496DFAED7
:1016A000CEAE2497ECA8FDA82E143F0409F4D9C2AD
:1016B000F40147818085542F482F2A143B0488F475
:1016C000EAA9FBA951834083EAA9FBA93296FBABA7
:1016D000EAAB1196FFEF2F1A3F0A02E0800E911C31
:1016E000E1CF24143504C8F570E060E020FC20C090
:1016F0002496EEADFFAD2497EA0FFB1FEE0FFF1F00
:10170000EC7FF370CEA8DFA8EC0DFD1D00811181E8
:101710002281338122273327BA0155274427402BC2
:10172000512B622B732B4083518362837383CCCF05
:101730002296EEADFFAD2297EA0FFB1FEE0FFF1FC3
:10174000EC7FF370EEA8FFA8EE0DFF1D0081118164
:101750002281338100271127E2CFC10183709927AD
:101760006A01F12CE12C00E010E09801C9A6DAA68C
:10177000EBA6FCA60DA71EA72FA738ABFD0100976F
:1017800041F5EE0FFF1FE87FF770E60DF71DD080E3
:10179000D9AAC180D280E380F480158129A53AA519
:1017A00040E050E060E070E080E090E000E30E9404
:1017B000C41509A9202B20833C2931834D2942835C
:1017C0005E295383F62AF482172B15838683978329
:1017D0007BCF8130910541F53196EE0FFF1FE87FF9
:1017E000F770E60DF71D108119ABC180D280E38040
:1017F000F680178129A53AA540E050E060E070E04E
:1018000080E090E000E20E94C41509A9202B20830B
:101810003C2931834D294283E52AE3826483758321
:101820008F298683912BD3CF029729F53296EE0F1D
:10183000FF1FE87FF770E60DF71D108119ABC1801F
:10184000D480E580F680178129A53AA540E050E0D4
:1018500060E070E080E090E000E10E94C41509A91A
:10186000202B20833C29318342835383D62AD48280
:10187000E72AE582D5CF3396EE0FFF1FE87FF7709A
:10188000E60DF71D19A510832AA521831DCFC301DD
:10189000019763E070E0803D974068F52091F20782
:1018A000C101860D971D62E070E02817190618F136
:1018B000C30143E0969587954A95E1F79C012D5F1A
:1018C0003F4F30930605209305059301277033277A
:1018D000232B29F0049690930605809305058091AB
:1018E000050590910605E7E0F5E0813021E09207DB
:1018F00028F064E070E081E090E0FECB31969F013B
:10190000275035402817390710F41082F7CF91E09F
:10191000909308058350809309050091F00710917A
:10192000F10770E060E020E0C12CD12C7601C39477
:10193000D701C601022E04C0880F991FAA1FBB1F22
:101940000A94D2F789A79AA7ABA7BCA7FB0183E0AB
:10195000F695E7958A95E1F7E65FFA4F3081A101A8
:1019600093E0569547959A95E1F74F715527400FAB
:10197000511FDA014C9150E0B22DB77002C055955D
:101980004795BA95E2F789A540FF0FC0832B808366
:101990002F5F283009F420E0EFEF2E1A3E0A6F5F28
:1019A0007F4F6616770621F6F9CB80953823308372
:1019B000EFCFC301019763E070E0803D974068F589
:1019C0002091F807C101860D971D62E070E028178D
:1019D000190618F1C30113E0969587951A95E1F75A
:1019E0009C012D5F3F4F3093060520930505930121
:1019F00027703327232B29F00496909306058093B4
:101A000005058091050590910605E7E0F5E0813038
:101A100001E0900728F064E070E082E090E06CCB99
:101A200031969F01275035402817390710F410824E
:101A3000F7CF92E090930805835080930905609159
:101A4000F6077091F70750E040E010E0C12CD12C70
:101A50007601C394D701C601012E04C0880F991FD7
:101A6000AA1FBB1F0A94D2F789A79AA7ABA7BCA746
:101A7000FA0133E0F695E7953A95E1F7E65FFA4F1C
:101A800000819101A3E036952795AA95E1F7260FED
:101A9000372F311DD9012C9130E0B22DB77002C023
:101AA00035952795BA95E2F789A520FF0FC0802BC1
:101AB00080831F5F183009F410E0EFEF2E1A3E0A02
:101AC0004F5F5F4F6416750629F668CB8095082333
:101AD0000083EFCFC301019763E070E08D3791057C
:101AE00050F42091F507C101860D971D281719069E
:101AF00028F462E070E084E090E0FECAC301880F41
:101B0000991F03969093060580930505E7E0F5E09D
:101B100031969F01275035402817390710F410825D
:101B2000F7CF94E090930805835080930905220C29
:101B3000331CE091F307F091F407E20DF31D01E08F
:101B4000601A710812E0810E911C2FEF6216720666
:101B500009F424CB808191813296D40111969C9313
:101B6000119712968C93EBCF6114BFEF7B0629F08F
:101B700063E070E06114710449F48091F2078150D0
:101B8000990B8215930528F462E070E085E090E0FF
:101B9000B3CA41E06114EFEF7E0609F040E060E077
:101BA000C1010E943604FACAA30113E05695479575
:101BB0001A95E1F7842FB30167707727672B11F02F
:101BC00081E0840FA30141505109403B574018F474
:101BD0008217130629F063E070E08FE090E08CCA72
:101BE0002091F207C101860D971D2817190618F4D8
:101BF00062E070E0F2CF86E090E09093060580937B
:101C000005058FE0809308053092090520920A05AA
:101C100070920B0560920C0510E000E0F12CF801C9
:101C2000A3E0F695E795AA95E1F7E95FFA4F4781BA
:101C300050E00F2C02C0559547950A94E2F7417089
:101C400060E0C101800F911F0E943604F394B8E058
:101C5000CB2EFC1001C0F12C0F5F1F4F60167106D8
:101C6000F1F60091050510910605780122E0E20EDB
:101C7000F11CF0920605E09205050E94FC03F801B4
:101C8000E95FFA4F9083818380910B0687FD09C03D
:101C900061E00E94770180910706909108060E94FA
:101CA000030280910C0690910D06DC01ED91FC91F0
:101CB0000280F381E02DA70167E075E0199580911E
:101CC0000C0690910D06DC01ED91FC910680F781E8
:101CD000E02D199580910706909108060E94030255
:101CE00080910B0687FDF8C860E00E947701F4C878
:101CF00003E22016310408F070C013E2611671048B
:101D000008F06BC06214730408F467C0C101880F47
:101D1000991F880F991F9C01245C3B4F6901510159
:101D200072E1872E75E0972E90E080E0D601129642
:101D30002D913C912250310910E000E0263331050D
:101D400028F42A5F3B4FF901008110E07C01E00E8E
:101D5000F11E9701255F3F4F21303140E0F5C5016D
:101D60000E94B503A801BC01C4010E941F17800E88
:101D7000911E95012F5F3F4F04E0C00ED11CC7019B
:101D800015016216730628F5C7010796909306059C
:101D90008093050583E4809308058EE78093090509
:101DA00010920A0520920B0580913B0990913C0905
:101DB00020913D0930913E0930930C0520930D058B
:101DC00090930E0580930F0510921005E092110577
:101DD000E5C95901ABCF7C01D7CF83E090E0909368
:101DE00006058093050583E48093080581E828C0F3
:101DF00025E122163104D8F4CE0101962C01FC0114
:101E0000D12CC12C92E0890E911C2C143D04D9F0E8
:101E1000D40112968C91129713969C91892798273A
:101E2000892781939193BFEFCB1ADB0AEBCF83E035
:101E300090E090930605809305051093080582E8CD
:101E400080930905ABC9B12CA12C19A6712C612C6A
:101E50000BE010E0CA14DB0469F1F201E190F190AB
:101E60002F01F3E2EF16F10440F083E090E090934D
:101E700006058093050584E4B7CFC7010E94E303FC
:101E80004C011C01200E311E21E02216320690F476
:101E9000C7010E94B503A401BC01C801895F9A4F24
:101EA0000E941F17680C791C3FEFA31AB30AE9A61A
:101EB0008101D0CF109306050093050584E480933B
:101EC00008058EE78093090510920A05C9A4C092FF
:101ED0000B0580913B0990913C0920913D0930917F
:101EE0003E0930930C0520930D0590930E058093C9
:101EF0000F05709210056092110550C903E220167B
:101F0000310450F480910C0590910D059827892794
:101F100098278A3F910540F083E090E09093060572
:101F20008093050582E460CF8101000F111F000F2F
:101F3000111FF801E45CFB4FE280F38080910405FF
:101F4000813009F1F801E45CFB4F00811181D1106F
:101F50003AC0BFE0EB16F10409F4CDC008F0AFC001
:101F6000F3E0EF16F10409F4B6C02AE0E216F1043A
:101F700009F4B5C032E0E316F10409F071C0F801CC
:101F800081818D7F9AC020E1E216F104D9F2C1016E
:101F90000E94E3039C0136952795FC01E95FFA4F07
:101FA000A7E0B5E03197CD018750954082179307A0
:101FB00048F617968C911797978117969C931797C9
:101FC00087831196EFCFC1010E94E3036C013FE0CC
:101FD000E316F10409F468C0D8F483E0E816F104CC
:101FE00009F449C09AE0E916F10469F1A2E0EA16A1
:101FF000F104B1F5A6016EE075E0C8010E941F175B
:10200000D80111968C911197826011968C9328C0FB
:10201000BBE2EB16F104D1F1E7E3EE16F104B1F106
:10202000F3E2EF16F104E1F4AC016EE075E0C801F3
:1020300003960E941F17D80112968C911297826006
:1020400012968C930DC0A6016EE075E0C8010E9447
:102050001F17D80118968C911897826018968C9348
:1020600083E090E0909306058093050582E48093D9
:1020700008058EE7E5CEA6016EE075E0C8010E9476
:102080001F17F801828182608283EACFA6016EE089
:1020900075E0D8018D919C910E941F17A6016EE0FA
:1020A00075E0C8010396EBCFAC016EE075E0C801A6
:1020B0000E941F17F801818182608183D1CF4BE29A
:1020C000E416F10491F087E3E816F10421F093E2BD
:1020D000E916F10429F6F80182818D7FD5CFD80168
:1020E00018968C9118978D7FB9CFD80112968C9144
:1020F00012978D7FA5CFD80111968C9111978D7F66
:1021000084CF8E3D9D4A21F481E0809304051DC853
:1021100083E090E0909306058093050516C8309300
:102120000605209305053AC81F920F920FB60F922D
:1021300011242F933F938F939F93AF93BF938091DD
:10214000490990914A09A0914B09B0914C093091ED
:10215000480923E0230F2D3758F50196A11DB11D25
:10216000209348098093490990934A09A0934B0909
:10217000B0934C0980914D0990914E09A0914F095F
:10218000B09150090196A11DB11D80934D09909306
:102190004E09A0934F09B0935009BF91AF919F9101
:1021A0008F913F912F910F900FBE0F901F90189518
:1021B00026E8230F0296A11DB11DD2CF1F920F92C8
:1021C0000FB60F9211240BB60F922F933F934F939C
:1021D0005F936F937F938F939F93AF93BF93EF938F
:1021E000FF9389EF97E00E94A702FF91EF91BF91C3
:1021F000AF919F918F917F916F915F914F913F919F
:102200002F910F900BBE0F900FBE0F901F9018953F
:102210001F920F920FB60F9211240BB60F922F93AD
:102220008F939F93EF93FF93E0910908F0910A0831
:102230008081E0910F08F091100882FD1DC090810F
:10224000809112088F5F8F7320911308821741F0DD
:10225000E0911208F0E0E750F84F958F8093120854
:10226000FF91EF919F918F912F910F900BBE0F9047
:102270000FBE0F901F9018958081F2CF789484B58F
:10228000826084BD84B5816084BD85B5826085BD72
:1022900085B5816085BD80916E00816080936E0000
:1022A00010928100809181008260809381008091F2
:1022B00081008160809381008091800081608093A3
:1022C00080008091B10084608093B1008091B00063
:1022D00081608093B0008091910082608093910032
:1022E0008091910081608093910080919000816045
:1022F000809390008091A10082608093A1008091E2
:10230000A10081608093A1008091A00081608093F2
:10231000A0008091210182608093210180912101A0
:102320008160809321018091200181608093200150
:1023300080917A00846080937A0080917A00826034
:1023400080937A0080917A00816080937A008091F6
:102350007A00806880937A001092C10086E998E044
:102360000E944E0186EC98E00E944E011092F60801
:102370001092F7081092F8081092F9081092FA08D3
:102380001092FB081092FC081092FD081092FF08B2
:10239000109200091092010910920209109203098B
:1023A000109204091092050910920609109208096A
:1023B00010920A0903E015E010930D0900930C092F
:1023C00091E090930305C2E0D5E0D0931109C0934A
:1023D000100910920205A1E0B5E0B0931509A09391
:1023E000140910920105E0E0F5E0F0931909E0937B
:1023F0001809109200056FEF74E070931D09609347
:102400001C091092FF044EEF54E0509321094093B1
:1024100020091092FE042CEF34E03093250920931C
:1024200024091092FD041092FC04109229091092C4
:102430002C0910922B0910922E091092310910923A
:1024400030091093070D0093060DD093090DC0932A
:10245000080DB093B70DA093B60DF093B90DE093AE
:10246000B80D7093BB0D6093BA0D5093BD0D4093A2
:10247000BC0D3093FF072093FE07E0910908F0910F
:102480000A0882E08083E0910508F0910608108236
:10249000E0910708F091080880E18083109211080C
:1024A000E0910D08F0910E0886E08083E0910B0822
:1024B000F0910C08808180618083E0910B08F0919D
:1024C0000C08808188608083E0910B08F0910C08F3
:1024D000808180688083E0910B08F0910C088081F6
:1024E0008F7D808329EF37E030930D0620930C0613
:1024F0008FEF80930B062EEE32E030930A06209386
:10250000090621E43AE030930806209307069093E9
:10251000E60784E38093E90784E18093EC078093E6
:10252000EF0788E38093F20790E29093F50780939A
:10253000F80787E090E00E94FA159093F1078093E6
:10254000F007009709F451C0C7E0FC012C2F11924D
:102550002A95E9F788E690E00E94FA159093E8073B
:102560008093E707009709F440C028E6FC01119228
:102570002A95E9F780E590E00E94FA159093EB0721
:102580008093EA07009789F120E5FC0111922A95D2
:10259000E9F780EA90E00E94FA159093EE078093A5
:1025A000ED07009711F120EAFC0111922A95E9F755
:1025B00087E090E00E94FA159093F7078093F60762
:1025C000009799F0FC011192CA95E9F780E490E038
:1025D0000E94FA159093F4078093F307009729F06F
:1025E00020E4FC0111922A95E9F7D0E0C0E08E01C9
:1025F000000F111F0A58184FF80180819181892B13
:1026000049F481E090E00E94FA15F80191838083FB
:10261000FC0110822196C833D10549F7E090E70705
:10262000F090E807E6E3F7E090E080E02191319157
:10263000232B39F4DF0112979701280F391F2D93AF
:102640003C9302968034910589F7D12CC12CE60188
:10265000CC0FDD1FCA53D94F88819981892B41F452
:1026600081E090E00E94FA1599838883FC01108232
:10267000FFEFCF1ADF0A28E3C216D10441F72091F9
:10268000F3073091F407E6E8F6E090E080E041914E
:102690005191452B39F4DF011297A901480F591FB9
:1026A0004D935C9302968034910589F7EEE5F6E050
:1026B00090E080E020E4E20EF11C21913191232B87
:1026C00039F4DF0112979701280F391F2D933C939E
:1026D00002968832910589F74091EA075091EB07FD
:1026E000E6E3F6E090E080E021913191232B59F46C
:1026F000DF0112979C01220F331F220F331F240F7B
:10270000351F2D933C9301968431910569F74091D3
:10271000ED075091EE07EEE0F6E090E080E02191C9
:102720003191232B61F4DF0112979C0163E0220FAA
:10273000331F6A95E1F7240F351F2D933C930196C3
:102740008431910561F780E29EE4A0E0B0E08093DF
:10275000400990934109A0934209B09343090E9414
:102760000E02609344097093450980934609909343
:102770004709C1E088E0C82ED12CE12CF12C0E9441
:102780000E020091440910914509209146093091AB
:102790004709601B710B820B930B0091400910914C
:1027A000410920914209309143096017710782075E
:1027B000930708F468C180913B0990913C09A0916E
:1027C0003D09B0913E090196A11DB11D80933B09C1
:1027D00090933C09A0933D09B0933E0980919B08DA
:1027E00081FD08C08091120981FF66C180911309A3
:1027F00080939A088091A40881FD10C0C0929C0823
:10280000D0929D08E0929E08F0929F081092A00836
:102810001092A1081092A2081092A30886E998E0ED
:102820000E949F0480911E0981FD07C0E0911C0950
:10283000F0911D098091A50880838091FE0881FD9B
:1028400009C088E0E7EAF8E0A6EFB8E001900D9251
:102850008A95E1F78091220981FD07C0E091200966
:10286000F09121098091A50880838091090981FD5B
:1028700004C08091A508809308098091CB0881FD50
:102880000BC080910E0981FF1DC181E090910F095D
:10289000911180E08093CA088091D40881FD10C016
:1028A000C092CC08D092CD08E092CE08F092CF082A
:1028B0001092D0081092D1081092D2081092D3082A
:1028C00086EC98E00E949F048091160981FD07C064
:1028D000E0911409F09115098091D50880838091C9
:1028E000070981FD09C088E0E7EDF8E0AFEFB8E047
:1028F00001900D928A95E1F780911A0981FD07C038
:10290000E0911809F09119098091D5088083809190
:102910000B0981FD04C08091D50880930A0980913C
:102920002D09282F227081FD16C08091F608909104
:10293000F708A091F808B091F90830910A0931110F
:10294000C8C021E030912A0931FF209329099093D2
:102950002C0980932B0980912909882371F080919B
:10296000260981FD0AC080912B0990912C09E091E4
:102970002409F09125099183808380913209282FC1
:10298000227081FD16C08091FF0890910009A091EE
:102990000109B09102093091080931119DC021E06F
:1029A00030912F0931FF20932E09909331098093A4
:1029B000300980912E09882371F08091260981FDCC
:1029C0000AC08091300990913109E0912409F09179
:1029D0002509918380838091370990913809A091CE
:1029E0003909B0913A09AC01BD01535D6E4C7E4F7F
:1029F0004115EAEC5E07EAE96E07EBE37E0708F0B3
:102A00006EC0409337095093380960933909709329
:102A10003A090E94E20580913F09811118C0C093D4
:102A20003F090E940E020091400910914109209136
:102A3000420930914309601B710B820B930B609329
:102A40004409709345098093460990934709809102
:102A5000440990914509A0914609B09147094091D8
:102A60004009509141096091420970914309840FD6
:102A7000951FA61FB71F8093440990934509A09303
:102A80004609B09347090E940E0200914409109133
:102A900045092091460930914709601B710B820B53
:102AA000930B603177428105910510F00E94E20599
:102AB00088950E94360363CEE0911009F0911109C8
:102AC000808196CEE0910C09F0910D0981E0908112
:102AD000DFCE90E080E036CF90E080E061CF4091A3
:102AE00033095091340960913509709136099D5927
:102AF000A946BA438093370990933809A0933909BE
:102B0000B0933A094F5F5F4F6F4F7F4F4093330948
:102B10005093340960933509709336097ACFE9EF01
:102B2000F7E01382128288EE93E0A0E0B0E08483A5
:102B30009583A683B7838CEC94E09183808385ECA6
:102B400090E09587848784EC90E09787868780EC77
:102B500090E0918B808B81EC90E0938B828B82EC68
:102B600090E0958B848B86EC90E0978B868B118E12
:102B7000128E138E148E0895EE0FFF1F881F8BBFC9
:102B80000790F691E02D1994002E083090F0982FC0
:102B9000872F762F652F542F432F322F222708504F
:102BA000F4CF220F331F441F551F661F771F881F46
:102BB000991F0A95B2F7002D089597FD1094002EE5
:102BC000083098F00850232F342F452F562F672FA9
:102BD000782F892F912DF4CF159497958795779518
:102BE000679557954795379527950A95AAF7112424
:102BF000002D08950F931F93CF93DF93823091059B
:102C000010F482E090E0E0915309F091540930E033
:102C100020E0B0E0A0E0309799F42115310509F4E7
:102C20004AC0281B390B24303105D8F58A819B8195
:102C30006115710589F1FB0193838283FE0111C047
:102C4000408151810281138148175907E0F04817EC
:102C5000590799F4109761F012960C9312971396F6
:102C60001C933296CF01DF91CF911F910F91089560
:102C70000093530910935409F4CF2115310551F0F5
:102C80004217530738F0A901DB019A01BD01DF01AA
:102C9000F801C1CFEF01F9CF909354098093530904
:102CA000CDCFFE01E20FF31F8193919322503109A2
:102CB00039832883D7CF2091510930915209232B92
:102CC00041F4209102023091030230935209209383
:102CD000510920910002309101022115310541F482
:102CE0002DB73EB74091040250910502241B350BCD
:102CF000E0915109F0915209E217F307A0F42E1B5D
:102D00003F0B2817390778F0AC014E5F5F4F24174F
:102D1000350748F04E0F5F1F5093520940935109F9
:102D2000819391939FCFF0E0E0E09CCFCF93DF932E
:102D30000097E9F0FC01329713821282A0915309A7
:102D4000B0915409ED0130E020E01097A1F420810A
:102D50003181820F931F2091510930915209281718
:102D6000390709F061C0F0935209E0935109DF91EE
:102D7000CF910895EA01CE17DF07E8F54A815B811C
:102D80009E0141155105B1F7E901FB83EA834991A1
:102D90005991C40FD51FEC17FD0761F48081918113
:102DA0000296840F951FE90199838883828193811C
:102DB0009B838A83F0E0E0E012968D919C911397BB
:102DC0000097B9F52D913C911197CD010296820F94
:102DD000931F20915109309152092817390739F66C
:102DE000309751F51092540910925309B09352093B
:102DF000A0935109BCCFD383C28340815181840FFA
:102E0000951FC817D90761F44E5F5F4F888199817C
:102E1000480F591F518340838A819B81938382830A
:102E20002115310509F0B0CFF0935409E09353090F
:102E30009ECFFD01DC01C0CF13821282D7CFFB01F0
:102E4000DC0102C001900D9241505040D8F7089526
:042E5000F894FFCF24
:102E540000005509800000C0C101C30302C2C606B8
:102E640007C705C5C404CC0C0DCD0FCFCE0E0ACABE
:102E7400CB0BC90908C8D81819D91BDBDA1A1EDE0E
:102E8400DF1FDD1D1CDC14D4D515D71716D6D212BE
:102E940013D311D1D010F03031F133F3F23236F6CE
:102EA400F737F53534F43CFCFD3DFF3F3EFEFA3A7E
:102EB4003BFB39F9F83828E8E929EB2B2AEAEE2E0E
:102EC4002FEF2DEDEC2CE42425E527E7E62622E27E
:102ED400E323E12120E0A06061A163A3A26266A6CE
:102EE400A767A56564A46CACAD6DAF6F6EAEAA6A3E
:102EF4006BAB69A9A86878B8B979BB7B7ABABE7E8E
:102F04007FBF7DBDBC7CB47475B577B7B67672B23D
:102F1400B373B17170B050909151935352929656CD
:102F24005797559594549C5C5D9D5F9F9E5E5A9AFD
:102F34009B5B99595898884849894B8B8A4A4E8E8D
:102F44008F4F8D4D4C8C44848545874746868242FD
:102F540043834181804000C1814001C0804101C060
:102F6400804100C1814001C0804100C1814000C155
:102F7400814001C0804101C0804100C1814000C145
:102F8400814001C0804100C1814001C0804101C035
:102F9400804100C1814001C0804100C1814000C125
:102FA400814001C0804100C1814001C0804101C015
:102FB400804100C1814000C1814001C0804101C005
:102FC400804100C1814001C0804100C1814000C1F5
:102FD400814001C0804101C0804100C1814000C1E5
:102FE400814001C0804100C1814001C0804101C0D5
:102FF400804100C1814000C1814001C0804101C0C5
:10300400804100C1814001C0804100C1814000C1B4
:10301400814001C0804100C1814001C0804101C0A4
:10302400804100C1814001C0804100C1814000C194
:10303400814001C0804101C0804100C1814000C184
:10304400814001C0804100C1814001C0804101C074
:10305400804100C18140010200000000000008001E
:10306400000000010000000000000000000000005B
:103074000000000000000001000000000000000249
:1030840000000000000000000000000196080F008E
:1030940098080F009A080F009C080A00A5080F0062
:1030A400A7080A00B0080200B2080F00B4080A001A
:1030B400BD080A00C6080F00C8080F00CA080F00A0
:1030C400CC080A00D5080F00D7080A00E00802005F
:1030D400E2080F00E4080A00ED080A00F6080A00F6
:1030E400FF080A0008090F000A090F000C09230051
:1030F4001009230014093700180937001C09370088
:103104002009370024092B0029090F002B0903008B
:103114002E090F003009030000000000C902330229
:103124006002160391026F028302356534656535CA
:1031340032343236333364663339663933353836AC
:0C314400313639636130383765370000E0
:00000001FF
