:100000000C941B010C944C010C944C010C944C016D
:100010000C944C010C944C010C944C010C944C012C
:100020000C944C010C944C010C944C010C944C011C
:100030000C944C010C944C010C944C010C944C010C
:100040000C944C010C944C010C944C010C944C01FC
:100050000C944C010C944C010C944C010C944C10DD
:100060000C944C010C94C0100C9496100C944C0100
:100070000C944C010C944C010C944C010C944C01CC
:100080000C944C010C944C010C944C010C944C01BC
:100090000C944C010C944C010C944C010C944C01AC
:1000A0000C944C010C944C010C944C010C944C019C
:1000B0000C944C010C944C010C944C010C944C018C
:1000C0000C944C010C944C010C944C010C944C017C
:1000D0000C944C010C944C010C944C010C944C016C
:1000E0000C944C010C94AC010C94EB010C94910217
:1000F0000C94CD010C94DD010C94E5010C94F901F4
:100100000C94C6010C94C9020C94CA010C94C2014F
:100110000C94D7010C9483020C94A7010C94160341
:100120000C94EF010C9460020C94F3010C94E10127
:100130000C94FD010C944F150C9433020C94D301D4
:100140000C94BE010C946F020000220025002800D0
:100150002B002E00310034000201000005010801CF
:100160000B0105050505070508080808020202023B
:100170000A0A080804040404010101010101010143
:100180000303030303030303040707070C0C0C0C0E
:100190000C0C0C0C020202020606060606060606F7
:1001A0000B0B0B0B0B0B0B0B010210202008081084
:1001B00020401020408002010201080402010102D7
:1001C00004081020408080402010080402018004B0
:1001D000020180402010080402010804020101020B
:1001E0000408102040800102040810204080000014
:1001F0000A0B02090C0D0E080703040100000000A1
:1002000000000000000000000000000000000000EE
:1002100000000000000000000000121110000000AB
:1002200000000000000000000000000000000000CE
:10023000000000004F1511241FBECFEFDFEFDEBF1F
:10024000CDBF00E00CBF15E0A0E0B2E0E4EDFDE2C0
:1002500000E00BBF02C007900D92AA34B107D9F796
:100260002AE0AAE4B5E001C01D92AC34B207E1F780
:1002700011E0CBE1D1E000E006C021970109802F19
:10028000FE010E947C15CA31D10780E00807A9F75A
:100290000E94F6100C94E8160C940000FC0181E01A
:1002A00080838283148216821782108611861286BA
:1002B0001386148615861786118A128A138A148A61
:1002C000158A168A178A108E128E148E168E178E25
:1002D00010A211A212A213A214A215A217A210A674
:1002E00011A612A613A614A615A616A60895282FC1
:1002F00030E0F901E251FE4F9491F901E855FE4FCB
:1003000044912E593E4FF9012491222309F435C01E
:10031000992311F191509231F8F4E92FF0E08827F8
:10032000EB56FE4F8F4F0C947C15C601CA01A701F6
:10033000BE01C201AC01CD01D301D701DD01E10154
:10034000E501EB01EF01AC01F301F901FD01809141
:1003500080008F7780938000E22FF0E0EE0FFF1F88
:10036000E85BFE4FA591B4918FB7F894EC916111C1
:1003700048C040954E234C938FBF089580918000D4
:100380008F7DE8CF80918000877FE4CF84B58F7721
:1003900084BDE2CF84B58F7DFBCF8091B0008F7795
:1003A0008093B000D9CF8091B0008F7DF9CF80913C
:1003B00090008F7780939000CFCF809190008F7DB9
:1003C000F9CF80919000877FF5CF8091A0008F7743
:1003D0008093A000C1CF8091A0008F7DF9CF809144
:1003E000A000877FF5CF809120018F778093200137
:1003F000B3CF809120018F7DF9CF80912001877F3D
:10040000F5CF4E2BB8CF8230910538F0880F991F69
:10041000880F991F05970197F1F708953FB7F89452
:100420008091440A9091450AA091460AB091470AEA
:1004300026B5A89B05C02F3F19F00196A11DB11D3F
:100440003FBFBA2FA92F982F8827BC01CD01620F7B
:10045000711D811D911D42E0660F771F881F991F36
:100460004A95D1F70895AF92BF92CF92DF92EF9263
:10047000FF920F931F93CF93DF936C017B018B014E
:10048000040F151FEB015E01AE18BF08C017D1079E
:1004900059F06991D601ED91FC910190F081E02D28
:1004A000C6011995892B79F7C501DF91CF911F916D
:1004B0000F91FF90EF90DF90CF90BF90AF90089595
:1004C000FC01538D448D252F30E0842F90E0821B5A
:1004D000930B541710F0CF96089501970895FC01DF
:1004E000918D828D981761F0A28DAE0FBF2FB11D37
:1004F0005D968C91928D9F5F9F73928F90E008958F
:100500008FEF9FEF0895FC01918D828D981731F048
:10051000828DE80FF11D858D90E008958FEF9FEF9C
:100520000895FC01918D228D892F90E0805C9F4F72
:10053000821B91098F739927089580E598E00E94A6
:10054000910221E0892B09F420E0822F0895FC011B
:10055000A48DA80FB92FB11DA35ABF4F2C91848D24
:1005600090E001968F739927848FA689B7892C9381
:10057000A089B1898C91837080648C93938D848DD4
:10058000981306C00288F389E02D80818F7D8083D7
:100590000895EF92FF920F931F93CF93DF93EC0197
:1005A00081E0888F9B8D8C8D98131AC0E889F9891A
:1005B000808185FF15C09FB7F894EE89FF8960831D
:1005C000E889F98980818370806480839FBF81E09E
:1005D00090E0DF91CF911F910F91FF90EF900895E0
:1005E000F62E0B8D10E00F5F1F4F0F731127E02EBB
:1005F0008C8D8E110CC00FB607FCFACFE889F989F3
:10060000808185FFF5CFCE010E94A702F1CFEB8D4F
:10061000EC0FFD2FF11DE35AFF4FF0829FB7F894C6
:100620000B8FEA89FB8980818062CFCFCF93DF93E4
:10063000EC01888D8823B9F0AA89BB89E889F989FA
:100640008C9185FD03C0808186FD0DC00FB607FC2F
:10065000F7CF8C9185FFF2CF808185FFEDCFCE0162
:100660000E94A702E9CFDF91CF91089580E090E04A
:10067000892B29F00E949D0281110E94000080E0D8
:1006800090E0892B49F080E090E0892B29F00E94CE
:10069000000081110E94000080E090E0892B49F069
:1006A00080E090E0892B29F00E94000081110E94D7
:1006B000000080E090E0892B49F080E090E0892BF9
:1006C00029F00E94000081110C9400000895FC01A3
:1006D00084819581A681B781408151816281738136
:1006E000811526E3920725E6A20724ECB2073CF029
:1006F00014161506160617068CF4B7FF0FC04150E6
:100700005109610971094083518362837383965350
:10071000A546B44C84839583A683B7838481958151
:10072000A681B781408151816281738181302AEC39
:1007300092072AE9A2072BE3B2073CF477FF14C023
:10074000181619061A061B067CF44F5F5F4F6F4F91
:100750007F4F40835183628373839A5CAA49BB4372
:1007600084839583A683B7830895880F991F880F84
:10077000991FFC01EA5FFB4F828193818F309105C5
:1007800071F040F48230910551F00A9759F090E0F1
:1007900080E008958332910511F0C797C1F781E099
:1007A00090E0089588E090E00895880F991F880FE1
:1007B000991FFC01EA5FFB4F808191812281338187
:1007C0002F30310549F048F42230310529F02A3024
:1007D000310511F090E080E008952332310519F0E1
:1007E00027333105B9F7FC01228121FF02C00396AE
:1007F000089580819181089520915E05209530E0D3
:10080000F901EA5FFC4F908190952A5F3D4FD90135
:100810008C9140915C0550915D0542505109EEE587
:10082000F5E031969F012E5535402417350770F4B9
:1008300020819227292F30E0D901AA5FBC4F9C91DB
:1008400098272A5F3D4FD9018C91EBCF089523E083
:1008500030E030935D0520935C05EEE5F5E0909186
:100860003D08908380588183628308950F931F937E
:10087000582F577001E010E020E030E004C0000F76
:10088000111F221F331F5A95D2F723E096958795A3
:100890002A95E1F79927E0914708F09148086623E7
:1008A00021F0E0914D08F0914E08E80FF91F80818A
:1008B000442329F0082B00831F910F910895009580
:1008C0000823F9CFCF92DF92EF92FF920F931F93FD
:1008D000CF93DF93CDB7DEB789899A89AB89BC897D
:1008E0004D895E896F89788D098D1A8D2B8D3C8D90
:1008F000CD8CDE8CEF8CF8A080179107A207B30790
:1009000059F44C195D096E097F091416150616066F
:1009100017065CF081E00AC0801B910BA20BB30BA1
:10092000181619061A061B06ACF780E0DF91CF9166
:100930001F910F91FF90EF90DF90CF9008954F920D
:100940005F926F927F928F929F92AF92BF92CF925F
:10095000DF92EF92FF920F931F93CF93DF93CDB768
:10096000DEB7A0970FB6F894DEBF0FBECDBFFC0177
:1009700023812270308131111AC0211101C01282ED
:10098000A0960FB6F894DEBF0FBECDBFDF91CF911A
:100990001F910F91FF90EF90DF90CF90BF90AF909D
:1009A0009F908F907F906F905F904F90089521114E
:1009B00002C021E02283FC0126A121FD09C028E01C
:1009C000EAE2FAE0DC015E9601900D922A95E1F7E9
:1009D0008C01FC01F28C8481F1101BC0948D91116B
:1009E000EAC08823C1F0838D81FD02C081E0828F3F
:1009F000F801808981FF1786F80187A581FD1FC056
:100A000088E07E96D801979601900D928A95E1F73D
:100A100016C081111BC0F801818D81FD08C0118AAB
:100A2000128A138A148A158A168A178A108EF80178
:100A3000808981FF1786F801838D81FF128EF8016E
:100A4000858D81FD9DCF8481848F9ACFF1E0FF1247
:100A5000F6CFF80183A594A5A5A5B6A582849384B5
:100A6000A484B58447A150A561A572A5468057808E
:100A700060847184440D551D661D771D49835A831A
:100A80006B837C83880D991DAA1DBB1D8D839E835E
:100A9000AF83B887CE0101960E94670388E0FE010C
:100AA0003196DE01519601900D928A95E1F788E02A
:100AB000FE017196DE01599601900D928A95E1F73B
:100AC00000D000D01F921F92ADB7BEB7119688E03C
:100AD000F8017E9601900D928A95E1F700D000D042
:100AE0001F921F92ADB7BEB7119688E0FE017996AE
:100AF00001900D928A95E1F71F9282E0E82EEF9225
:100B00001F921F92FF920E9462040FB6F894DEBFFC
:100B10000FBECDBFF801918D882389F0838D81FFB1
:100B2000E28EF801808981FD02C081E0878788E03C
:100B3000F801369691FD83CFD801519665CF91FD8E
:100B40007ECF82A193A1A4A1B5A1C3A4D4A4E5A4FE
:100B5000F6A4468D578D60A171A187A090A4A1A491
:100B6000B2A4481959096A097B0949875A876B87D2
:100B70007C878C199D09AE09BF098D879E87AF8739
:100B8000B88BCE0109960E94670388E0FE01399672
:100B9000DE01119601900D928A95E1F788E0FE0141
:100BA0003196DE01199601900D928A95E1F788E061
:100BB000FE013996C1CF811142CF2DCF2F923F92A6
:100BC0004F925F926F927F928F929F92AF92BF925D
:100BD000CF92DF92EF92FF920F931F93CF93DF9309
:100BE000CDB7DEB7C354D1090FB6F894DEBF0FBE40
:100BF000CDBF10E000E0F801EE0FFF1FE353F84F08
:100C00000190F081E02D309749F041E08081811121
:100C100001C040E060E0C8010E9436040F5F1F4F32
:100C20000833110541F7E0903E08F0903F080DE8C9
:100C300017E019AF08AF8701005C1F4FF7012DE8DF
:100C400037E0D9018D919D919D01009729F0DC013C
:100C50008D919C919183808332960E171F0789F79F
:100C6000D12CC12CF601EE0FFF1FE35EF84F01906F
:100C7000F081E02D309749F041E08081811101C081
:100C800040E061E0C6010E943604BFEFCB1ADB0AE8
:100C9000E8E3CE16D10431F74DED56E0E0914A0875
:100CA000F0914B089F01205C3F4FDA018D919D919F
:100CB000AD01009729F0DC018D919C919183808397
:100CC0003296E217F30789F7E5EBF6E0FBAFEAAF00
:100CD000F80108E6E00EF11C25EB36E0D9018D9114
:100CE0009D919D01009729F0DC018D919C9191834C
:100CF00080833296EE16FF0689F7EDE8F6E0FDAF49
:100D0000ECAFE0914108F09142089F01205B3F4F1A
:100D10000DE816E0D8018D919D918D01009749F065
:100D2000DC014D915D916D917C9140835183628393
:100D3000738334962E173F0769F7E5E6F6E0FFAFB9
:100D4000EEAFE0914408F09145089F0120563F4FD7
:100D500085E696E0DC01CD90DD90CD01C114D10493
:100D6000F1F0D601EC901196FC90119712960C912F
:100D7000129713961C91139714967C9114971596BD
:100D80006C91159716965C91169717964C91E08288
:100D9000F182028313837483658356834783389675
:100DA0002E173F07B9F610925D0510925C058091F1
:100DB000630690916406DC01ED91FC910084F1855D
:100DC000E02D1995892B09F483C0809163069091D9
:100DD0006406DC01ED91FC910084F185E02D19950C
:100DE00020915C0530915D05A0916306B091640689
:100DF000ED91FC9111970084F185E02D28173907BA
:100E000068F4CD01199590935D0580935C05809100
:100E10006006909161060E940302D7CFCD0119951B
:100E2000813091400CF054C080916306909164062B
:100E3000DC01ED91FC910084F185E02D1995069778
:100E40000CF446C04EE5842E45E0942E8401E090DB
:100E50005C05F0905D05C8018E5595408E159F0587
:100E600078F48091630690916406DC01ED91FC9129
:100E70000284F385E02D1995F80181938F01E7CF66
:100E800010915F058FEB810F853080F00E94FC038D
:100E90009701225A3A4FF901329740812150310986
:100EA000D9012C91342F2817390791F490915E05C0
:100EB00080913D08981709F4CDC080916306909108
:100EC0006406DC01ED91FC910680F781E02D199517
:100ED000409147085091480830E020E0F901EE0FBA
:100EE000FF1FE353F84F0190F081E02D309799F008
:100EF000D90183E0B695A7958A95E1F7A40FB51FB0
:100F00008C9190E0622F677002C0959587956A95E5
:100F1000E2F7817080832F5F3F4F28333105F1F670
:100F200080913E0890913F08BC01605C7F4FDC01DE
:100F3000E8ADF9AD21913191F9AFE8AF2115310557
:100F400031F04D915C911197F901518340831296D4
:100F50006A177B0769F7FB0188599F4FAAADBBADA4
:100F60004D915D91BBAFAAAF4115510529F020818C
:100F70003181DA012D933C9332968E179F0771F7DA
:100F8000E0914108F0914208CF01805B9F4FACADEA
:100F9000BDAD2D913D91BDAFACAF2115310551F0E7
:100FA0004081518162817381D9014D935D936D932D
:100FB0007C93139734968E179F0749F7E091440866
:100FC000F0914508CF0180569F4FAEADBFADED907B
:100FD000FD90BFAFAEAFE114F104F1F000811181DB
:100FE000728163815481458136812781D7010C93B9
:100FF00011961C93119712967C93129713966C93EB
:10100000139714965C93149715964C931597169610
:101010003C93169717962C9338968E179F07A9F630
:10102000CD5BDF4F0FB6F894DEBF0FBECDBFDF91B3
:10103000CF911F910F91FF90EF90DF90CF90BF90D5
:10104000AF909F908F907F906F905F904F903F9068
:101050002F900895B2E0EB1AF108F0925D05E0924E
:101060005C058091600590916105382E292E609075
:10107000620570906305762467247624D09062051B
:101080002091640530E01F3009F48AC5A0F51330C3
:1010900009F480C158F4113009F4F5C3123009F491
:1010A00084C461E070E0812F90E022C0153009F423
:1010B00057C508F40BC51630A1F720914008809160
:1010C000430890E0880F991FE22FF0E08E0F9F1FDA
:1010D0004091460804E0409FA0011124480F591F89
:1010E0002416350608F449C062E070E086E090E01E
:1010F0000E9427044FC0123409F4E2C698F410315C
:1011000009F462C2113469F684E090E090935D05C1
:1011100080935C0510935F051092600584E48093D2
:10112000610538C0143409F445C608F4DDC515342A
:1011300009F0B7CF8D3ABEED9B0709F09AC7109220
:101140005B0585E480935F058EE78093600581E20F
:10115000E8E2F5E0DE01119601900D928A95E1F743
:10116000FE013196A1E6B5E081919D012E553540F5
:10117000882309F48CC78D93F7CF2E163F06D8F439
:10118000220C331CE0913E08F0913F08E20DF31D64
:101190007182608280915C0590915D05029681303C
:1011A000914008F45AC580915F0564E070E090E0DA
:1011B0000E94270452C528163906F0F5A30170E0F5
:1011C00060E0809141089091420820FC1CC0910190
:1011D0002E1B3F0BF901EE0FFF1FEC7FF370E80FA2
:1011E000F91F80819181A281B381AA27BB27BA010F
:1011F00055274427842B952BA62BB72B80839183CF
:10120000A283B383C7CFE095F095E20DF31DEE0FF7
:10121000FF1FEC7FF370E80FF91F60807180828000
:1012200093806624772446295729682979294083A1
:10123000518362837383AECF9101237033274301BF
:10124000B12CA12CC12CD12C7601E0914408F09155
:1012500045082115310549F5281A390A220C331C95
:1012600038EF232237E03322E20DF31D50806180F6
:1012700072801381B481A581940140E050E060E068
:1012800070E080E090E000E30E948415252920832F
:10129000632A6182742A7282152B1383B62BB4835E
:1012A000A72BA5838683978375CF2130310541F520
:1012B000AFEF2A1A3A0A281A390A220C331CB8EF5F
:1012C0002B22B7E03B22E20DF31D5080618072803B
:1012D0001381B681A7819401A501B601C70100E27F
:1012E0000E948415522A5082632A6182742A728273
:1012F000152B1383648375838B2B86839A2BD3CF13
:101300002230310529F502E0200E311C281A390A55
:10131000220C331C18EF212217E03122E20DF31DBD
:101320005080618074801581B681A7819401A501E8
:10133000B601C70100E10E948415522A5082632A37
:10134000618242835383762A7482172B1583D4CF0C
:1013500023E0220E311C281A390A220C331C38EFE4
:10136000232237E03322E20DF31D52814381348181
:10137000258196818781808291825A2952834B29C7
:1013800043833C2934832D2925839E2996838F29E5
:10139000878300CFC301019763E070E08D3791052B
:1013A000C8F46101C60CD71C40914008E091430885
:1013B000F0E0EE0FFF1FE40FF11D80914608A4E05E
:1013C0008A9FC00111248E0F9F1FC816D90628F0CE
:1013D00062E070E083E090E08BCE660C771CC30186
:1013E000039690935D0580935C05AEE5B5E011969C
:1013F0009D012E5535402817390710F41C92F7CF60
:1014000093E090935F05835080936005E0904408DB
:10141000F0904508A0904108B0904208A0913E0885
:10142000B0913F08BAA7A9A7A42FB0E0BBABAAAB65
:1014300083E090E02C014E1A5F0A3D0160947094A5
:10144000C214D30409F4A6CEAAA9BBA92A163B0646
:1014500060F49101220F331FA9A5BAA52A0F3B1FE3
:10146000D9018C9111963C911AC02E163F0670F549
:1014700020FC22C0C101AAA9BBA98A1B9B0B880F13
:10148000991F8C7F93708A0D9B1DDC014D915D919E
:101490006D917C91AB0166277727842F352FD4017E
:1014A00013963C93139714968C93B2E08B0E911C79
:1014B0000FEF201A300AC4CF9301220D331D220FE3
:1014C000331F2C7F33702A0D3B1DCACF810103705F
:1014D00011270115110521F581010E1B1F0B000FAE
:1014E000111F087F17700E0D1F1DD8012C9111962A
:1014F0003C91119712964C91129713965C91139709
:1015000014966C91149715967C91159716968C915C
:10151000169717969C9100E30E949F15822FBFCFCC
:101520000130110511F50E1B1F0B020D131D000FCD
:10153000111F087F17700E0D1F1DD8012C911196D9
:101540003C91119712964C91129713965C911397B8
:1015500014966C91149715967C91159716968C910C
:10156000169717969C9100E2D7CF0230110511F51E
:101570000E1B1F0B020D131D000F111F087F17708C
:101580000E0D1F1DD8012C9111963C9111971296AA
:101590004C91129713965C91139714966C91149733
:1015A00015967C91159716968C91169717969C9187
:1015B00000E1B2CF9201220D331D220F331F287F8D
:1015C00037702E0D3F1D4CCFC30101978B3791050E
:1015D00030F4C301880F991F2817390729F063E0F9
:1015E00070E080E190E084CDD101A60DB71DBDABC8
:1015F000ACAB8091400840904308512C440C551CE2
:10160000A82EB12C4A0C5B1C20914608B4E02B9FFD
:1016100090011124240D351DECA9FDA9E217F30753
:1016200018F062E070E0DDCF26E030E030935D0539
:1016300020935C0510935F05309260052092610550
:1016400010926205609263056090440870904508AE
:10165000C0904108D0904208DFAACEAA40913E082F
:1016600050913F089101220F331F7A01E20EF31EC1
:10167000FBAAEAAAD101A419B509C50180959095E4
:10168000FC01E40DF51D2296FFAFEEAF229762013B
:10169000CA18DB082496DFAECEAE2497ECA8FDA8CE
:1016A0002E143F0409F4D9C2F40147818085542FD8
:1016B000482F2A143B0488F4EAA9FBA951834083EC
:1016C000EAA9FBA93296FBABEAAB1196FFEF2F1A02
:1016D0003F0A02E0800E911CE1CF24143504C8F5C6
:1016E00070E060E020FC20C02496EEADFFAD2497B2
:1016F000EA0FFB1FEE0FFF1FEC7FF370CEA8DFA8F1
:10170000EC0DFD1D008111812281338122273327B9
:10171000BA0155274427402B512B622B732B408352
:10172000518362837383CCCF2296EEADFFAD2297B7
:10173000EA0FFB1FEE0FFF1FEC7FF370EEA8FFA870
:10174000EE0DFF1D008111812281338100271127B9
:10175000E2CFC101837099276A01F12CE12C00E0EE
:1017600010E09801C9A6DAA6EBA6FCA60DA71EA755
:101770002FA738ABFD01009741F5EE0FFF1FE87F63
:10178000F770E60DF71DD080D9AAC180D280E38022
:10179000F480158129A53AA540E050E060E070E0B2
:1017A00080E090E000E30E94841509A9202B2083AB
:1017B0003C2931834D2942835E295383F62AF482E2
:1017C000172B1583868397837BCF8130910541F555
:1017D0003196EE0FFF1FE87FF770E60DF71D1081C1
:1017E00019ABC180D280E380F680178129A53AA584
:1017F00040E050E060E070E080E090E000E20E94B5
:10180000841509A9202B20833C2931834D2942834B
:10181000E52AE382648375838F298683912BD3CF56
:10182000029729F53296EE0FFF1FE87FF770E60D5D
:10183000F71D108119ABC180D480E580F680178137
:1018400029A53AA540E050E060E070E080E090E03B
:1018500000E10E94841509A9202B20833C293183B3
:1018600042835383D62AD482E72AE582D5CF3396A2
:10187000EE0FFF1FE87FF770E60DF71D19A5108327
:101880002AA521831DCFC301019763E070E0803D4D
:10189000974068F520914908C101860D971D62E0C7
:1018A00070E02817190618F1C30113E09695879583
:1018B0001A95E1F79C012D5F3F4F30935D05209312
:1018C0005C05930127703327232B29F0049690930E
:1018D0005D0580935C0580915C0590915D05EEE56A
:1018E000F5E0813021E0920728F064E070E081E0CB
:1018F00090E0FECB31969F012E55354028173907D1
:1019000010F41082F7CF91E090935F05835080939D
:101910006005009147081091480870E060E020E001
:10192000C12CD12C7601C394D701C601022E04C06C
:10193000880F991FAA1FBB1F0A94D2F789A79AA7DD
:10194000ABA7BCA7FB0133E0F695E7953A95E1F725
:10195000EF59FA4F3081A101A3E056954795AA951A
:10196000E1F74F715527400F511FDA014C9150E0BC
:10197000B22DB77002C055954795BA95E2F789A583
:1019800040FF0FC0832B80832F5F283009F420E0B5
:10199000EFEF2E1A3E0A6F5F7F4F6616770621F62D
:1019A000F9CB809538233083EFCFC301019763E0F3
:1019B00070E0803D974068F520914F08C101860D89
:1019C000971D62E070E02817190618F1C30123E0A3
:1019D000969587952A95E1F79C012D5F3F4F3093AF
:1019E0005D0520935C05930127703327232B29F095
:1019F000049690935D0580935C0580915C059091C1
:101A00005D05EEE5F5E0813001E0900728F064E047
:101A100070E082E090E06CCB31969F012E5535400E
:101A20002817390710F41082F7CF92E090935F05E2
:101A300083508093600560914D0870914E0850E08E
:101A400040E010E0C12CD12C7601C394D701C6012F
:101A5000012E04C0880F991FAA1FBB1F0A94D2F73A
:101A600089A79AA7ABA7BCA7FA0103E0F695E7956B
:101A70000A95E1F7EF59FA4F0081910183E036951D
:101A800027958A95E1F7260F372F311DD9012C9123
:101A900030E0B22DB77002C035952795BA95E2F7C0
:101AA00089A520FF0FC0802B80831F5F183009F4A9
:101AB00010E0EFEF2E1A3E0A4F5F5F4F6416750677
:101AC00029F668CB809508230083EFCFC3010197E7
:101AD00063E070E08D37910550F420914C08C1010E
:101AE000860D971D2817190628F462E070E084E03F
:101AF00090E0FECAC301880F991F039690935D057D
:101B000080935C05EEE5F5E031969F012E5535405A
:101B10002817390710F41082F7CF94E090935F05EF
:101B2000835080936005220C331CE0914A08F091A9
:101B30004B08E20DF31D01E0601A710812E0810EFE
:101B4000911C2FEF6216720609F424CB80819181DB
:101B50003296D40111969C93119712968C93EBCFE9
:101B60006114BFEF7B0629F063E070E0611471043B
:101B700049F4809149088150990B8215930528F406
:101B800062E070E085E090E0B3CA41E06114EFEFFD
:101B90007E0609F040E060E0C1010E943604FACA06
:101BA000A301F3E056954795FA95E1F7842FB30129
:101BB00067707727672B11F081E0840FA3014150F4
:101BC0005109403B574018F48217130629F063E08F
:101BD00070E08FE090E08CCA20914908C101860D29
:101BE000971D2817190618F462E070E0F2CF86E01E
:101BF00090E090935D0580935C058FE080935F0596
:101C000030926005209261057092620560926305D2
:101C100010E000E0F12CF80173E0F695E7957A9575
:101C2000E1F7E25AFA4F478150E00F2C02C0559578
:101C300047950A94E2F7417060E0C101800F911F5F
:101C40000E943604F394E8E0CE2EFC1001C0F12C83
:101C50000F5F1F4F60167106F1F600915C05109141
:101C60005D05780122E0E20EF11CF0925D05E09244
:101C70005C050E94FC03F801E25AFA4F90838183CD
:101C80008091620687FD09C061E00E947701809122
:101C90005E0690915F060E94030280916306909118
:101CA0006406DC01ED91FC910280F381E02DA70137
:101CB0006EE575E019958091630690916406DC01EC
:101CC000ED91FC910680F781E02D199580915E06DB
:101CD00090915F060E9403028091620687FDF8C81A
:101CE00060E00E947701F4C804E42016310408F093
:101CF00056C014E46116710408F051C062147304F4
:101D000008F44DC0710169E6A62E65E0B62ED12C0F
:101D1000C12CC7010E94B5034C018601080F191F91
:101D2000C8010B9681309140C0F5C7010E94D503D0
:101D3000A401BC01C5010E94DF16A80CB91CC70193
:101D40000196680117016816790628F5C8010796FB
:101D500090935D0580935C0583E480935F058EE737
:101D60008093600510926105209262058091320A8D
:101D70009091330A2091340A3091350A30936305EB
:101D8000209364059093650580936605109367051D
:101D900000936805FFC97C01BCCF8601D7CF83E0E3
:101DA00090E090935D0580935C0583E480935F05EC
:101DB00081E828C035E123163104D8F4CE0101961C
:101DC0002C01FC01D12CC12C92E0890E911C2C1409
:101DD0003D04D9F0D40112968C91129713969C91E0
:101DE00089279827892781939193BFEFCB1ADB0A24
:101DF000EBCF83E090E090935D0580935C051093BA
:101E00005F0582E880936005C5C9B12CA12C19A695
:101E1000712C612C0BE010E0CA14DB0469F1F201B3
:101E2000E190F1902F01F4E4EF16F10440F083E02B
:101E300090E090935D0580935C0584E4B7CFC70183
:101E40000E94B5034C011801280E391E21E022160C
:101E5000320690F4C7010E94D503A401BC01C80159
:101E6000825A9A4F0E94DF16680C791C3FEFA31A22
:101E7000B30AE9A68101D0CF10935D0500935C05FC
:101E800084E480935F058EE780936005109261057E
:101E9000C9A4C09262058091320A9091330A2091C0
:101EA000340A3091350A309363052093640590938A
:101EB00065058093660570926705609268056AC93A
:101EC00004E42016310450F4809163059091640578
:101ED0009827892798278A3F910540F083E090E072
:101EE00090935D0580935C0582E460CF8101000FD3
:101EF000111F000F111FF801EA5FFB4FE280F38012
:101F000080915B058130F9F0F801EA5FFB4F0081B9
:101F10001181D11038C0FFE0EF16F10409F4A4C01C
:101F200008F093C032E0E316F10409F49DC08AE0A2
:101F3000E816F104D9F5D80118968C9118978D7F81
:101F400018968C9333C020E1E216F104E9F2C10146
:101F50000E94B5039C0136952795FC01E25AFA4F81
:101F6000AEE5B5E03197CD018E55954082179307C8
:101F700058F617968C911797978117969C931797F9
:101F800087831196EFCFC1010E94B5036C013FE03A
:101F9000E316F10409F440C0A0F492E0E916F1045C
:101FA000D9F1AAE0EA16F10409F444C083E090E014
:101FB00090935D0580935C0582E480935F058EE7D6
:101FC00021CFB3E2EB16F104D9F0E7E3EE16F1040A
:101FD00069F7A60165E675E0F801808191810E94AC
:101FE000DF16A60165E675E0C80103960E94DF16BC
:101FF000D80112968C911297826012968C93D6CF4C
:10200000A60165E675E0C80103960E94DF16F80197
:10201000828182608283CACFA60165E675E0C8012D
:102020000E94DF16D80111968C911197826011964B
:102030008C93BCCFA60165E675E0C8010E94DF164F
:10204000F801808582608087B1CF93E2E916F104C0
:1020500029F0A7E3EA16F10409F0A8CFD8011296F7
:102060008C9112978D7FC9CFF80181818D7F8183FB
:102070009DCF8E3D9D4A21F481E080935B0561C830
:1020800083E090E090935D0580935C055AC830939F
:102090005D0520935C057EC81F920F920FB60F92CC
:1020A00011242F933F938F939F93AF93BF9380916E
:1020B000400A9091410AA091420AB091430A30919E
:1020C0003F0A23E0230F2D3758F50196A11DB11DBE
:1020D00020933F0A8093400A9093410AA093420ABA
:1020E000B093430A8091440A9091450AA091460A10
:1020F000B091470A0196A11DB11D8093440A9093A7
:10210000450AA093460AB093470ABF91AF919F91A9
:102110008F913F912F910F900FBE0F901F901895A8
:1021200026E8230F0296A11DB11DD2CF1F920F9258
:102130000FB60F9211240BB60F922F933F934F932C
:102140005F936F937F938F939F93AF93BF93EF931F
:10215000FF9380E598E00E94A702FF91EF91BF9165
:10216000AF919F918F917F916F915F914F913F912F
:102170002F910F900BBE0F900FBE0F901F901895D0
:102180001F920F920FB60F9211240BB60F922F933E
:102190008F939F93EF93FF93E0916008F091610814
:1021A0008081E0916608F091670882FD1DC09081F2
:1021B000809169088F5F8F7320916A08821741F0C0
:1021C000E0916908F0E0E05BF74F958F8093690834
:1021D000FF91EF919F918F912F910F900BBE0F90D8
:1021E0000FBE0F901F9018958081F2CF789484B520
:1021F000826084BD84B5816084BD85B5826085BD03
:1022000085B5816085BD80916E00816080936E0090
:102210001092810080918100826080938100809182
:102220008100816080938100809180008160809333
:1022300080008091B10084608093B1008091B000F3
:1022400081608093B00080919100826080939100C2
:1022500080919100816080939100809190008160D5
:10226000809390008091A10082608093A100809172
:10227000A10081608093A1008091A0008160809383
:10228000A000809121018260809321018091210131
:1022900081608093210180912001816080932001E1
:1022A00080917A00846080937A0080917A008260C5
:1022B00080937A0080917A00816080937A00809187
:1022C0007A00806880937A001092C1001092ED0825
:1022D0001092EE081092EF081092F00880E095E658
:1022E000ADECBDE18093F1089093F208A093F30860
:1022F000B093F40886EF98E00E944E0186E299E0E0
:102300000E944E0186E599E00E944E0186E899E020
:102310000E944E0186EB99E00E944E01AAE5CA2E6A
:10232000A5E0DA2ED092E709C092E60910925A058C
:10233000B9E5EB2EB5E0FB2EF092EB09E092EA094D
:102340001092590508E515E01093EF090093EE0986
:1023500010925805C7E5D5E0D093F309C093F20970
:1023600010925705A6E5B5E0B093F709A093F609DA
:1023700010925605E5E5F5E0F093FB09E093FA09C4
:102380001092550564E575E07093FF096093FE09AE
:102390001092540543E555E05093030A4093020A16
:1023A0001092530522E535E03093070A2093060A80
:1023B0001092520581E5A82E85E0B82EB0920B0A46
:1023C000A0920A0A1092510590E5892E95E0992E67
:1023D00090920F0A80920E0A109250058FE4682E98
:1023E00085E0782E7092130A6092120A10924F05BF
:1023F0009EE4492E95E0592E5092170A4092160AF3
:1024000010924E058DE4282E85E0382E30921B0A5E
:1024100020921A0A10924D058CE495E090931F0AC1
:1024200080931E0A10924C058BE495E09093230A4A
:102430008093220A10924B058AE495E09093270A34
:102440008093260A10924A05D0925E0DC0925D0DCF
:10245000F092600DE0925F0D1093620D0093610D9C
:10246000D093640DC093630DB093660DA093650D7A
:10247000F093680DE093670D70936A0D6093690D9A
:1024800050936C0D40936B0D30930E0E20930D0EF8
:10249000B092100EA0920F0E9092120E8092110E1A
:1024A0007092140E6092130E5092160E4092150EFA
:1024B0003092180E2092170EECE4F5E0F0931A0E0D
:1024C000E093190E2BE435E030931C0E20931B0E85
:1024D00090936E0D80936D0DE0916008F09161080E
:1024E00082E08083E0915C08F0915D081082E091C9
:1024F0005E08F0915F0880E1808310926808E091A7
:102500006408F091650886E08083E0916208F091AC
:102510006308808180618083E0916208F0916308A4
:10252000808188608083E0916208F09163088081F7
:1025300080688083E0916208F091630880818F7DDC
:10254000808380E598E090936406809363068FEF24
:10255000809362068EEE92E090936106809360060F
:1025600081E49AE090935F0680935E0681E0809319
:102570003D0884E38093400884E18093430880937E
:10258000460888E38093490890E290934C08809332
:102590004F0887E090E00E94BA1590934808809316
:1025A0004708009709F451C0C7E0FC012C2F119295
:1025B0002A95E9F788E690E00E94BA1590933F08C3
:1025C00080933E08009709F440C028E6FC01119270
:1025D0002A95E9F780E590E00E94BA1590934208A9
:1025E00080934108009789F120E5FC0111922A951A
:1025F000E9F780EA90E00E94BA159093450880932D
:102600004408009711F120EAFC0111922A95E9F79C
:1026100087E090E00E94BA1590934E0880934D0891
:10262000009799F0FC011192CA95E9F780E490E0D7
:102630000E94BA1590934B0880934A08009729F09E
:1026400020E4FC0111922A95E9F7D0E0C0E08E0168
:10265000000F111F0353184FF80180819181892BBE
:1026600049F481E090E00E94BA15F80191838083DB
:10267000FC0110822196C833D10549F7C0913E086C
:10268000D0913F08EDE8F7E090E080E021913191B2
:10269000232B39F4DF0112979E01280F391F2D9348
:1026A0003C9302968034910589F710E000E0C80160
:1026B000880F991F9C01235E384F7901F9018081B1
:1026C0009181892B49F481E090E00E94BA15F701CD
:1026D00091838083FC0110820F5F1F4F0833110527
:1026E00031F720914A0830914B08EDEDF6E090E08B
:1026F00080E041915191452B39F4DF011297A901F6
:10270000480F591F4D935C9302968034910589F7C9
:10271000E5EBF6E090E080E0C05CDF4F2191319185
:10272000232B39F4DF0112979E01280F391F2D93B7
:102730003C9302968832910589F740914108509167
:102740004208EDE8F6E090E080E021913191232B02
:1027500059F4DF0112979C01220F331F220F331F00
:10276000240F351F2D933C9301968431910569F711
:102770004091440850914508E5E6F6E090E080E09D
:1027800021913191232B61F4DF0112979C0163E0C9
:10279000220F331F6A95E1F7240F351F2D933C93C9
:1027A00001968431910561F780E29EE4A0E0B0E0FB
:1027B0008093370A9093380AA093390AB0933A0A63
:1027C0000E940E0260933B0A70933C0A80933D0A7C
:1027D00090933E0AC1E00E940E0200913B0A1091C4
:1027E0003C0A20913D0A30913E0A601B710B820B1E
:1027F000930B0091370A1091380A2091390A3091D1
:102800003A0A601771078207930708F4E0C08091C5
:10281000320A9091330AA091340AB091350A019698
:10282000A11DB11D8093320A9093330AA093340AFC
:10283000B093350A8091280A81FFE2C08091290A6D
:102840008111E5C08091290A882349F080910C0A02
:1028500081FD05C0E0910A0AF0910B0A1082809177
:102860008B0981FD14C08091E80981FFE3C080914C
:10287000E9098111ECC08091EC0981FFE1C081E0A0
:102880009091ED09911101C080E080938A098091B7
:10289000940981FD09C088E0EDEEF8E0ACE8B9E00C
:1028A00001900D928A95E1F786E899E00E949F04D5
:1028B00080919509882349F08091080A81FD05C01F
:1028C000E091060AF091070A10828091BB0981FD10
:1028D00008C08091E80981FFBCC08091E90980931C
:1028E000BA098091C40981FD09C088E0EDEEF8E0E5
:1028F000ACEBB9E001900D928A95E1F786EB99E097
:102900000E949F048091C509882349F080910C0A98
:1029100081FD05C0E0910A0AF0910B0AC083809105
:102920002E0A90912F0AA091300AB091310AAC0181
:10293000BD01535D6E4C7E4F4115FAEC5F07FAE91D
:102940006F07FBE37F0708F08AC040932E0A50937D
:102950002F0A6093300A7093310A0E94DE0580913D
:10296000360A811118C0C093360A0E940E020091E7
:10297000370A1091380A2091390A30913A0A601BBF
:10298000710B820B930B60933B0A70933C0A80930C
:102990003D0A90933E0A80913B0A90913C0AA09197
:1029A0003D0AB0913E0A4091370A5091380A609131
:1029B000390A70913A0A840F951FA61FB71F80939A
:1029C0003B0A90933C0AA0933D0AB0933E0A0E94B2
:1029D0000E0200913B0A10913C0A20913D0A309171
:1029E0003E0A601B710B820B930B603177428105AD
:1029F000910510F00E94DE0588950E943603EBCE0B
:102A0000E091260AF091270A8081882369F080915D
:102A1000080A81FD05C0E091060AF091070AC0830B
:102A20008091280A81FD0ECFE091260AF091270AB5
:102A300080810ACFE091E609F091E709808119CF02
:102A4000E091EA09F091EB0981E090811BCF81E0F0
:102A50001CCFE091E609F091E709808140CF4091D9
:102A60002A0A50912B0A60912C0A70912D0A9D59C7
:102A7000A946BA4380932E0A90932F0AA093300A56
:102A8000B093310A4F5F5F4F6F4F7F4F40932A0AD9
:102A900050932B0A60932C0A70932D0A5ECFE0E5C9
:102AA000F8E01382128288EE93E0A0E0B0E0848325
:102AB0009583A683B7838AE195E09183808385EC33
:102AC00090E09587848784EC90E09787868780ECF8
:102AD00090E0918B808B81EC90E0938B828B82ECE9
:102AE00090E0958B848B86EC90E0978B868B118E93
:102AF000128E138E148E0895EE0FFF1F881F8BBF4A
:102B00000790F691E02D1994002E083090F0982F40
:102B1000872F762F652F542F432F322F22270850CF
:102B2000F4CF220F331F441F551F661F771F881FC6
:102B3000991F0A95B2F7002D089597FD1094002E65
:102B4000083098F00850232F342F452F562F672F29
:102B5000782F892F912DF4CF159497958795779598
:102B6000679557954795379527950A95AAF71124A4
:102B7000002D08950F931F93CF93DF93823091051B
:102B800010F482E090E0E0914A0AF0914B0A30E0C4
:102B900020E0B0E0A0E0309799F42115310509F468
:102BA0004AC0281B390B24303105D8F58A819B8116
:102BB0006115710589F1FB0193838283FE0111C0C8
:102BC000408151810281138148175907E0F048176D
:102BD000590799F4109761F012960C931297139677
:102BE0001C933296CF01DF91CF911F910F910895E1
:102BF00000934A0A10934B0AF4CF2115310551F086
:102C00004217530738F0A901DB019A01BD01DF012A
:102C1000F801C1CFEF01F9CF90934B0A80934A0A94
:102C2000CDCFFE01E20FF31F819391932250310922
:102C300039832883D7CF2091480A3091490A232B22
:102C400041F420910202309103023093490A20930B
:102C5000480A20910002309101022115310541F40A
:102C60002DB73EB74091040250910502241B350B4D
:102C7000E091480AF091490AE217F307A0F42E1BED
:102C80003F0B2817390778F0AC014E5F5F4F2417D0
:102C9000350748F04E0F5F1F5093490A4093480A8A
:102CA000819391939FCFF0E0E0E09CCFCF93DF93AF
:102CB0000097E9F0FC01329713821282A0914A0A30
:102CC000B0914B0AED0130E020E01097A1F4208193
:102CD0003181820F931F2091480A3091490A2817A9
:102CE000390709F061C0F093490AE093480ADF917F
:102CF000CF910895EA01CE17DF07E8F54A815B819D
:102D00009E0141155105B1F7E901FB83EA83499121
:102D10005991C40FD51FEC17FD0761F48081918193
:102D20000296840F951FE90199838883828193819C
:102D30009B838A83F0E0E0E012968D919C9113973B
:102D40000097B9F52D913C911197CD010296820F14
:102D5000931F2091480A3091490A2817390739F6FC
:102D6000309751F510924B0A10924A0AB093490AD3
:102D7000A093480ABCCFD383C28340815181840F82
:102D8000951FC817D90761F44E5F5F4F88819981FD
:102D9000480F591F518340838A819B81938382838B
:102DA0002115310509F0B0CFF0934B0AE0934A0AA0
:102DB0009ECFFD01DC01C0CF13821282D7CFFB0171
:102DC000DC0102C001900D9241505040D8F70895A7
:042DD000F894FFCFA5
:102DD40000004C0A800000C0C101C30302C2C60641
:102DE40007C705C5C404CC0C0DCD0FCFCE0E0ACA3F
:102DF400CB0BC90908C8D81819D91BDBDA1A1EDE8F
:102E0400DF1FDD1D1CDC14D4D515D71716D6D2123E
:102E140013D311D1D010F03031F133F3F23236F64E
:102E2400F737F53534F43CFCFD3DFF3F3EFEFA3AFE
:102E34003BFB39F9F83828E8E929EB2B2AEAEE2E8E
:102E44002FEF2DEDEC2CE42425E527E7E62622E2FE
:102E5400E323E12120E0A06061A163A3A26266A64E
:102E6400A767A56564A46CACAD6DAF6F6EAEAA6ABE
:102E74006BAB69A9A86878B8B979BB7B7ABABE7E0E
:102E84007FBF7DBDBC7CB47475B577B7B67672B2BE
:102E9400B373B17170B0509091519353529296564E
:102EA4005797559594549C5C5D9D5F9F9E5E5A9A7E
:102EB4009B5B99595898884849894B8B8A4A4E8E0E
:102EC4008F4F8D4D4C8C448485458747468682427E
:102ED40043834181804000C1814001C0804101C0E1
:102EE400804100C1814001C0804100C1814000C1D6
:102EF400814001C0804101C0804100C1814000C1C6
:102F0400814001C0804100C1814001C0804101C0B5
:102F1400804100C1814001C0804100C1814000C1A5
:102F2400814001C0804100C1814001C0804101C095
:102F3400804100C1814000C1814001C0804101C085
:102F4400804100C1814001C0804100C1814000C175
:102F5400814001C0804101C0804100C1814000C165
:102F6400814001C0804100C1814001C0804101C055
:102F7400804100C1814000C1814001C0804101C045
:102F8400804100C1814001C0804100C1814000C135
:102F9400814001C0804100C1814001C0804101C025
:102FA400804100C1814001C0804100C1814000C115
:102FB400814001C0804101C0804100C1814000C105
:102FC400814001C0804100C1814001C0804101C0F5
:102FD400804100C18140ED080A00F6080F00F8089E
:102FE4000F00FA080F00FC080A0005090F00070982
:102FF4000A001009020012090F0014090A001D0931
:103004000A0026090F0028090F002A090F002C09BD
:103014000A0035090F0037090A0040090200420975
:103024000F0044090A004D090A0056090F00580907
:103034000F005A090F005C090A0065090F006709AF
:103044000A007009020072090F0074090A007D0960
:103054000A0086090F0088090F008A090F008C09ED
:103064000A0095090F0097090A00A0090200A209A5
:103074000F00A4090A00AD090A00B6090F00B80937
:103084000F00BA090F00BC090A00C5090F00C709DF
:103094000A00D0090200D2090F00D4090A00DD0990
:1030A4000A00E6092300EA092300EE092300F209D5
:1030B4002300F6092300FA092300FE092300020A6B
:1030C4002300060A37000A0A37000E0A3700120ADC
:1030D4003700160A37001A0A37001E0A3700220A78
:1030E4003700260A230000000000C90233026002F0
:1030F400160391026F0283026330353061643365D5
:1031040066366632366336326233666366306461CD
:0A3114006663666237356638000016
:00000001FF
